:020000040000fa
:080000000001040000000000f3
:020000040000fa
:100008002c0400002c0400002c0400002c04000028
:100018002c0400002c0400002c0400002c04000018
:100028002c0400002c0400002c0400002c04000008
:100038002c0400002c0400002c0400002c040000f8
:100048002c04000002020000fa0100002c0200004b
:100058002c0400002c0400002c0400009a0100006d
:100068002c0400002c0400002c0400002c040000c8
:100078002c0400002c0400002c0400002c040000b8
:100088002c0400002c0400002c0400002c040000a8
:100098002c0400002c0400002c0400002c04000098
:1000a8002c0400002c0400002c0400002c04000088
:1000b8002c0400002c0400002c0400002c04000078
:1000c8002c0400002c0400002c0400002c04000068
:1000d8002c0400002c0400002c0400002c04000058
:1000e8002c0400002c0400002c0400002c04000048
:0800f8002c0400002c040000a0
:020000040000fa
:100108002c0400002c0400002c0400002c04000027
:100118002c0400002c0400002c0400002c04000017
:100128002c0400002c0400002c0400002c04000007
:100138002c0400002c0400002c0400002c040000f7
:100148002c04000002020000fa0100002c0200004a
:100158002c0400002c0400002c0400009a0100006c
:100168002c0400002c0400002c0400002c040000c7
:100178002c0400002c0400002c0400002c040000b7
:100188002c0400002c0400002c0400002c040000a7
:100198002c0400002c0400002c0400002c04000097
:1001a8002c0400002c0400002c0400002c04000087
:1001b8002c0400002c0400002c0400002c04000077
:1001c8002c0400002c0400002c0400002c04000067
:1001d8002c0400002c0400002c0400002c04000057
:1001e8002c0400002c0400002c0400002c04000047
:0801f8002c0400002c0400009f
:020000040000fa
:10020000cf8420000e9f20000e0188000000000017
:10021000000020000000e000020032000001200089
:10022000200288000c000700e046200001002000aa
:1002300011000700000020000000e0000200320072
:1002400000000200000000004e020200000000005a
:100250000040da000000fe004440a9000000200039
:100260000000e0000300320000002000a001880030
:100270004440a8000000060091018800800078003a
:100280000000eb0015003700e280400032a0b4000f
:100290009101ba00e280400032a0b4009102ba009d
:1002a000e280400032a0b4000002eb00472bde00e9
:1002b000f507b200602ce10004003a000059eb00a1
:1002c0008301e900fdff3e00040037006128e100e2
:1002d000010032000082eb00040007001101ba00a7
:1002e0000200e000e8ff3a00000006003159ba00c1
:1002f0008301e9000c0032002159ba008301e900b2
:10030000080032000400e00003003a00e2804000f0
:1003100032a0b400f5ff370011d9ba008301e9001b
:10032000faff3a008100e800e180400032a0b4000a
:1003300000000600809fbe00829fbe000000fa0001
:1003400085e0a90041168000800320000080600045
:1003500000428800004280004300de000042880026
:100360000042800080004000c082200000804000e9
:1003700010007800a00e880000428000e10f5000bd
:1003800018003a0061842000914078000140780014
:100390000014a2000080fb000000e9004f00de0016
:1003a000004078008140e8008141780062842000ac
:1003b000034978000004e0000a0032005008800081
:1003c000104288000a21ef00214280001042800084
:1003d000008040000000d1002042880010c0b3001f
:1003e00046e8b7000080fa004f01be004f00be0093
:1003f000004006000000fa008540a9000080fa00d5
:1004000000400600809fbe000000fa008520a90081
:1004100050428000911080008140780001487800af
:100420005042800010407800ed4f500004003a0028
:100430003c48a8000080200050428800030037009c
:10044000504280000000e800504288000080fa001e
:100450004f00be0000400600801f78000000fa0038
:100460008560a900e0418000610060000000e000bc
:100470000700320040062000b00e8800b00e800059
:10048000c00e8800b00e8000d00e88003c28a80066
:100490000080fa004f007800004006000000fa00db
:1004a000dc22ef0000fc2f00c0168800000e2000a8
:1004b00000068800000e20002006880085e0a900c4
:1004c0008de0a80034000700230007004e0007005d
:1004d000450007004428ef004116800080032000fb
:1004e0000080600000428800004280004300de007f
:1004f000004288000042800080004000c08220004e
:100500000080400010007800a00e88007077200066
:10051000400e88003c08a80013e1a80010c0b300fa
:1005200046e8b70040062000b3000700050037008a
:10053000e0418000620060000000e0000100320045
:100540003f000700e0418000610060000000e00023
:10055000f7ff3a00e0ff37000000fa0080ff2f00ad
:10056000401588004006200000158800002020006b
:100570001015880020002000301588000008200099
:10058000201588008560a9008d60a800a1e2a80060
:100590000080fa00000006000000fa00f00f2000c2
:1005a000200e880000702000400e8800d421ef004b
:1005b00040062000b00e880040062000c00e8800d3
:1005c00040062000d00e8800200e8000300e8800eb
:1005d00000f02000500e880000002800000e880067
:1005e0000080fa00000006000000fa00000320006e
:1005f000900888000a21ef000080eb007008880056
:100600000080fa00000006000000fa000000280048
:10061000601088000e22ef00f0012000a01088007a
:100620008d20a80000802000504288003c48a9008e
:100630003c68a9000f42a8000080fa0000000600f4
:100640000400fa00204280008000eb000001be00a0
:1006500060342c003102200081000700000f780078
:100660009e0078000071220000017800110009004e
:100670008280d800204798002e4090000004e000bf
:10068000060032002e4090008080fb00008f2d007d
:100690000088b900000078001e0f40002e40900036
:1006a0000043b0000fe8b7009e007800803e2000b5
:1006b00000017800110009008280d80020479800ce
:1006c0002e4090000004e000060032002e40900012
:1006d0008080fb0080c12f000088b90000007800f6
:1006e0001e0f40002e4090000043b00010e8b700fd
:1006f0009e007800400620000001780011000900eb
:100700008280d800204798002e4090000004e0002e
:10071000060032002e4090008080fb00c0f92f00c0
:100720000088b900000078001e0f40002e409000a5
:100730000043b00011e8b7009e007800a000200040
:1007400000017800110009008280d800204798003d
:100750002e4090000004e000060032002e40900081
:100760008080fb0060ff2f000088b9000000780047
:100770001e0f40002e4090000043b00012e8b7006a
:100780001e007800004078000043b00013e8b70076
:100790007080200040428800030007003c28a90028
:1007a0000080fa00000006000000fa000c0037008c
:1007b0000000000071108000002020000080600018
:1007c0000000e000fbff3a004042800090407800cb
:1007d0008180fb00811088000000e8004042880012
:1007e00040428000104078000004e000f0ff3a0032
:1007f0000080fa00000006000400fa0010079800cc
:10080000080037000000eb00000f780001003700ff
:100810001e0fe800703e20009e007800808f500080
:10082000fbff36001e00900000f0a7000000ea0069
:100830000000ea004f00de00004078009e009000bb
:100840008100e900110798000004e000edff3a0084
:100850000080fa00000006000040da000000fe0000
:10086000839f68000100e00002003d00600010006e
:10087000e08018000300e00002003d00600111006c
:10088000e0811900050007004f00e00002003b0076
:1008900060001000e0801800000006006022b80030
:1008a000060220000000d0008180d2000482d20025
:1008b0008582d2000000a0000202520083825a000a
:1008c000030031000202420083824a000000a100be
:0c08d0000603e900f3ff3a0000000600f8
:020000040000fa
:1008dc003c080000100000000000000000080000b0
:1008ec003c0000000200000030303000303030009e
:1008fc000053700065656400203d200030303000ee
:10090c003030200072706d000d0a000000000000f5
:10091c00100204002004020001081000080120004d
:10092c000000000000012000100801000804020073
:0c093c0004201000020000000000000079
:020000040000fa
:0200000401f009
:04000000f6bf000047
:020000040000fa
:0200000401f009
:04000400d77f0000a2
:020000040000fa
:0200000401f009
:04000800efff000006
:020000040000fa
:0200000401f009
:04001400ffff0000ea
:020000040000fa
:0200000401f009
:04001800ffff0000e6
:00000001FF
