:020000040000fa
:080000000001040000000000f3
:020000040000fa
:10000800b6040000b6040000b6040000b604000000
:10001800b6040000b6040000b6040000b6040000f0
:10002800b6040000b6040000b6040000b6040000e0
:10003800b6040000b6040000b6040000b6040000d0
:10004800b604000006020000fe0100009a0200004b
:10005800b6040000b6040000b60400009e010000cb
:10006800b6040000b6040000b6040000b6040000a0
:10007800b6040000b6040000b6040000b604000090
:10008800b6040000b6040000b6040000b604000080
:10009800b6040000b6040000b6040000b604000070
:1000a800b6040000b6040000b6040000b604000060
:1000b800b6040000b6040000b6040000b604000050
:1000c800b6040000b6040000b6040000b604000040
:1000d800b6040000b6040000b6040000b604000030
:1000e800b6040000b6040000b6040000b604000020
:0800f800b6040000b60400008c
:020000040000fa
:10010800b6040000b6040000b6040000b6040000ff
:10011800b6040000b6040000b6040000b6040000ef
:10012800b6040000b6040000b6040000b6040000df
:10013800b6040000b6040000b6040000b6040000cf
:10014800b604000006020000fe0100009a0200004a
:10015800b6040000b6040000b60400009e010000ca
:10016800b6040000b6040000b6040000b60400009f
:10017800b6040000b6040000b6040000b60400008f
:10018800b6040000b6040000b6040000b60400007f
:10019800b6040000b6040000b6040000b60400006f
:1001a800b6040000b6040000b6040000b60400005f
:1001b800b6040000b6040000b6040000b60400004f
:1001c800b6040000b6040000b6040000b60400003f
:1001d800b6040000b6040000b6040000b60400002f
:1001e800b6040000b6040000b6040000b60400001f
:0801f800b6040000b60400008b
:020000040000fa
:100200008f9620000e9f20000e0188000000000045
:10021000000020000000e000020032000001200089
:10022000200288000c00070000cb21000100200004
:1002300011000700000020000000e0000200320072
:100240000000020000000000a40202000000000004
:100250000040da000000fe004440a90060002000d9
:100260000000e0000300320000002000a001880030
:100270004440a8000000060091018800800078003a
:100280000000eb0015003700e280400032a0b4000f
:100290009101ba00e280400032a0b4009102ba009d
:1002a000e280400032a0b4000002eb00472bde00e9
:1002b000f507b200602ce10004003a000059eb00a1
:1002c0008301e900fdff3e00040037006128e100e2
:1002d000010032000082eb00040007001101ba00a7
:1002e0000200e000e8ff3a00000006003159ba00c1
:1002f0008301e9000c0032002159ba008301e900b2
:10030000080032000400e00003003a00e2804000f0
:1003100032a0b400f5ff370011d9ba008301e9001b
:10032000faff3a008100e800e180400032a0b4000a
:10033000000006000000000000000000809fbe00da
:10034000829fbe000000fa0085e0a90041168000ef
:10035000800320000080600090428800904280006e
:100360004300de0090428800904280008000400000
:10037000008420000080400010007800a00e88005b
:1003800090428000e10f500018003a008185200063
:1003900091407800014078000014a2000080fb002a
:1003a0000000e9004f00de00004078008140e800d6
:1003b0008141780082852000034978000004e00034
:1003c0000a00320050088000a04288000a21ef0095
:1003d000b1428000a0428000008040000000d100b7
:1003e000b042880010c0b30058e8b7000080fa009f
:1003f0004f01be004f00be00004006000000fa00a2
:100400008540a9000080fa00004006003600f80090
:10041000809fbe00829fbe00849fbe00869fbe005c
:100420000400fa008520a900e042800091108000bd
:10043000814078000148780020032000280207004e
:10044000000f780020032000250207001007980005
:10045000e0428000a1ca29004b020700000f78008b
:10046000e0428000104078000080fb003104200052
:10047000810f50000e00320031052000810f500026
:1004800020003a00a1ca29000000eb003e0207004c
:10049000000f7800a20020008000eb001e00780012
:1004a0002b04070000007800f04288001600370097
:1004b000a1ca29000000eb0033020700000f7800fa
:1004c0006011b8008000eb001e00780052020700a7
:1004d0000040880011408800a1ca29000000eb00fc
:1004e00029020700100798006011b8008000eb0097
:1004f0001e00900048020700004388001143880056
:1005000001003700000000001e0078008f01070086
:100510001e0090008d0107000080fa004f03be000e
:100520004f02be004f01be004f00be003600f90072
:10053000004006000000fa008560a9005028a800cd
:100540000080fa00004006000000fa00dc22ef0004
:1005500000fc2f00c0168800000e20000006880056
:10056000000e20002006880085e0a9008de0a8008c
:100570004700070036000700610007005800070029
:100580005628ef00411680008003200000806000a4
:1005900090428800904280004300de009042880034
:1005a00090428000800040000084200000804000d5
:1005b00010007800a00e880070772000400e8800a0
:1005c0005008a80013e1a80010c0b30058e8b70015
:1005d00040062000cd00070018003700711680008b
:1005e00000002400008060000000e0000c003a00e1
:1005f00000702000400e8800d421ef005008a900b0
:1006000002003700a0002000c00007007116800023
:1006100000002400008060000000e000f9ff3200cc
:1006200080428000620060000000e00003003200b1
:1006300041000700680007005028a90080428000a0
:10064000610060000000e000e4ff3a00cdff3700e9
:100650000000fa0080ff2f004015880040062000af
:1006600000158800002020001015880020002000c0
:100670003015880000082000201588008560a9003a
:100680008d60a800a1e2a8000080fa00000006002a
:100690000000fa00f00f2000200e880000702000fb
:1006a000400e8800d421ef0040062000b00e8800e4
:1006b00040062000c00e880040062000d00e8800b2
:1006c000200e8000300e880000f02000500e8800c0
:1006d00000002800000e88000080fa0000000600dc
:1006e0000000fa0000032000900888000a21ef00b3
:1006f0000080eb00700888000080fa00000006000f
:100700000000fa0000002800601088000e22ef00b0
:10071000f0012000a01088008d20a800408020005b
:10072000e04288005048a9005068a9000f42a80084
:100730000080fa00000006006600fa00b042800067
:100740008000eb000001be0060342c00310220006c
:10075000a9000700000f78000e80e8009e1f7800b7
:10076000c1ca2900811f78003f060700e4875700af
:100770000e80e800d0428800030007005028a9003e
:100780000080fa00000006000000fa000c003700ac
:100790000000000071108000002020000080600038
:1007a0000000e000fbff3a00d0428000904078005b
:1007b0008180fb00811088000000e800d0428800a2
:1007c000d0428000104078000004e000f0ff3a00c2
:1007d0000080fa00000006000000fa00889fbe00ba
:1007e000b04280008000eb000001be0060342c00ad
:1007f00031022000800007000000780020438800bc
:10080000f142800020438000008050003043880087
:1008100051438000304380000080400050438800f6
:100820000040800011408000820007000001be00ef
:1008300030438000cf80de00009ab90004027800c7
:10084000028bb90086027800050242000014b8004d
:1008500009024200840478000043800011438000b4
:10086000740007000001be0050438000cf80de000e
:10087000009ab90004027800028bb9008602780061
:10088000050242000010b800010242008400780016
:1008900008004000898048004088de00cf80de00ec
:1008a0000000780040438800b10e80004043800083
:1008b00000804000b00e8800b10e800010032000c0
:1008c000808f500003003e0020032000b00e8800ff
:1008d0006a28ef00b10e800000202000808f5000b9
:1008e0000300360000202000b00e88006a28ef00c8
:1008f000b00e8000c00e8800b00e8000d00e8800c0
:100900004f04be000080fa00000006000400fa0058
:1009100010079800080037000000eb00000f780077
:10092000010037001e0fe800703e20009e00780096
:10093000808f5000fbff36001e00900000f0a700e3
:100940000000ea000000ea004f00de0000407800ee
:100950009e0090008100e900110798000004e0006b
:10096000edff3a000080fa00000006000040da00c7
:100970000000fe00889fbe0080047800304b80009d
:100980000000e00004003a000e0007000084eb00c5
:100990000000e00008003500384b80000900e0004e
:1009a0000500320009004400060007000000e000d6
:1009b00001003d000084eb00080078004f04be00f9
:1009c00000000600800078000100e00003003a000b
:1009d00000002000304b8800000005000080eb0084
:1009e00002002000828f500002003e00314b880040
:1009f0000000eb0000000600839f68000100e0009b
:100a000002003d0060001000e08018000300e000dc
:100a100002003d0060011100e08119003b00070069
:100a20004f00e00002003b0060001000e080180072
:100a3000000006000001be001f0007000470a700b0
:100a400003f0a1006509b100160032000d00350069
:100a50006828e10006003500f0ff2f00f1ff2700b5
:100a60000300e00013003b00010028000000050027
:100a700000004000818048008502e900fcff3a0048
:100a800008003700f88f420002003c008000eb00b5
:100a9000000005008100d1000080d3008502e8003d
:100aa000fcff3a000300e00002003b006000100081
:100ab000e080180000000600c70ade00f107b2005f
:100ac000f50fb20008003200e1cf42000200320010
:100ad0000170a00024000500810f700001003200a9
:100ae0000408050044000500810f700002003a0070
:100af000140005008502e9000000400081c04800a4
:100b0000fcff3b000170a000240005006022b8003b
:100b1000060220000000d0008180d2000482d200b2
:100b20008582d2000000a0000202520083825a0097
:100b3000030031000202420083824a000000a1004b
:100b40000603e900f3ff3a00000006000000e000a1
:100b50002f003200c0017800e38f51002c003600d6
:100b60000308a3002a003a00d14a80000100e000f7
:100b700002003200810f5000040031001100980083
:100b8000d04a8800160037008200780011019000da
:100b90000200e00002003200800f5100faff39002d
:100ba0001102780084824000850f5000180039003f
:100bb000808f520003003a00830842000100780051
:100bc000070037000200e00003003200830140000c
:100bd000830f51000e003900120098009000980019
:100be000900090000100e000090032001001400078
:100bf000828f500006003a00829520000009eb0029
:100c00001001780011084100910090001100980037
:100c100000000600889fbe0000047800c14a8000e2
:100c20000100e00002003200010078000d003700f2
:100c3000d14a8000a095200004003700910f540095
:100c4000250036000180e800910090000100e000de
:100c5000faff3a0010003700920f54001e003600d1
:100c60000280e800100178000200e000faff3a007c
:100c700011017800d14a8000a095200004003700bf
:100c8000910f5400140036000180e800910090009c
:100c9000828f5000faff3a00294b8000888f540061
:100ca0000100310088047800090078005000070036
:100cb0000000e00004003a00888f54000500320074
:100cc0008904d100f5ff3700091878009fff07005d
:100cd000d2ff37000000eb004f04be00000006000a
:100ce000881f7800630440000800a1008000eb002a
:100cf000800f540021003600e30f540001003e0035
:100d00004800200008007800c2ff07008000eb00c8
:100d10000000e00019003200900078009101780096
:100d200064815100880f51000300310011019000cf
:100d300002087800070037000881400002087800a8
:100d4000910190001301980010017800110914001e
:100d500088087800100178000000eb000200e00035
:100d600004003200920190000300e0000100320014
:100d70000280e800c04a88008180e8000100780015
:100d80004f04780000000600889fbe0081047800b0
:100d90000000e00002003a00f84a8000010037003d
:100da000000478000800be00a60607000004440006
:100db0001804e00004003a00c0952000f04a8800c2
:100dc0000004eb00070037000800be008c06070097
:100dd000000044001004e000010032000058eb0065
:100de000f04a8800080078004f04be0000000600aa
:100df000800078000000eb000100e00005003400f6
:100e000001007800dbfe0700e10f400001003a001e
:100e10000000eb00000006000e00fa00889fbe00f4
:100e20008a9fbe008c1f7800a0bf9f00010478003d
:100e30000205be0080047800880078006c805700ae
:100e40003201070068066000000278000430a1004b
:100e5000e10f520013003a00f481570008017800b6
:100e6000afb8970009007800400007000000e000dc
:100e700002003a006000b800030037000fb8970086
:100e80009fb89700d9080700c0b79f00d1b79f004f
:100e90006fb19700ffb197000a0141008b814900b3
:100ea00016003700e20f520018003a00140020002c
:100eb000f481570008017800afb897000900780066
:100ec0003d0207000000e00002003a006000b800a8
:100ed000030037000fb897009fb89700c3080700ba
:100ee000c0b79f00d1b79f006fb19700ffb19700c7
:100ef00078805700cc0307000a01be004fb097006e
:100f0000dfb097005b0307000c00370000002000f3
:100f100001f82700e30f5200050032006000b8001e
:100f2000e40f520005003a00f0ff2f00f1ff270008
:100f3000c0b79f00d1b79f0002003700c0b79f0025
:100f4000d1b79f004fb09700dfb097000c00e000d2
:100f50000100320001f0a2004f0678004f05be00ec
:100f60004f04be000080fa0000000600ea87470038
:100f7000889fbe008a9fbe008c9fbe008e1f780097
:100f8000d0b79f00e2b79f00030478006922b90040
:100f9000840678000006eb00010037001c002000ea
:100fa000810578008b00780000c3b300b14f1000ba
:100fb000faff3200000ceb003814780008057800c6
:100fc0008004eb00290037008d8f540017003d008e
:100fd00092002000110009008204d8000100e00006
:100fe00003003a0064054500000deb003a15780057
:100ff0001b02fb00cfa2de000403b1000580b1009c
:10100000a2002000030020001a00be00f4b79f00d9
:1010100085bf9f00ed0807007fb297008fba970049
:10102000001d420001954a000d003700100020000d
:1010300001002000180c4000589448008d8f540087
:1010400008003a0040c3b3009b4f10000500340075
:1010500012002000030020001a0d41005a9549009b
:101060008904e8008b05e8001c0020001b40780084
:101070008000fb000103b100e98f5000d2ff360071
:101080008d8f5400010034008d047800e1c2b3005c
:10109000814f500001003a008b05e8000900e00094
:1010a0002b003a000b007800050037000081eb00b0
:1010b0008081eb00180c4100589449001c0020006e
:1010c0008005780001c3b300b0cf1000f7ff3200f5
:1010d0001f0037008d8f54001c003d00920020003f
:1010e000110009008204d8000100e00003003a006a
:1010f00064054500000deb003a1578007bfa970077
:101100000402fb00cfa2de000403b1000580b100a1
:10111000a2002000030020001a00be00f4b79f00c8
:1011200085bf9f00a90807007fb297008fba97007c
:10113000001d420001954a008904e8000080eb0090
:101140008080eb00180c4000589448001c002000e0
:101150000b0778008e0578003b00fb000003b10010
:10116000e90f5000dbff36008c0578009d00200061
:10117000110009008d04d8000100e00016003200c3
:10118000818656001a01be00e00f5100e08f590021
:10119000070032000d00e9004200dd0061902000f0
:1011a000008040001000be0088080700008dbe00cf
:1011b000898446006168b900181c10001894180052
:1011c00005003700e984540092002000030020004d
:1011d000180c410058944900e88f54000400340072
:1011e0002a00be00e00f5000e08f5800f5ff3200eb
:1011f0000c00e000340032001e40780051c6b300fd
:10120000814f50000300320051c4b300814f5000a1
:101210002c003a005e457800b0c2b300804f550004
:1012200003003200d1c2b300814f550002003a00e2
:101230000e07e80001003700004578000e06780030
:101240006000b8008005eb000f003700f20f2e00a1
:10125000535f2000820f5000838f580009003c002c
:10126000a200200003002000580807000d01fb0029
:10127000cf91de000203b1000380b1000200400004
:10128000838048001b0020000c0778000e067800c1
:10129000bc4678000d01fb000203b100e90f5100cc
:1012a000eaff3600d2c2b300824f550002003a0076
:1012b00060001000e0801800180c400058944800ae
:1012c000010037008c057800efb197000300e000c3
:1012d000050032000b00e00001003a005fb7970004
:1012e0006fb097000e0878009200200011000900ee
:1012f0008204d8004f0778004f06be004f05be009d
:101300004f04be00af00b10000000600889fbe0081
:101310008a9fbe008c9fbe00000478000106780002
:1013200098047800890578000b0578008a05780014
:10133000bb4678000d00fb00250207000000e0001e
:10134000f9ff3a00d0c2b30080cf560003003a0044
:101350000b05780081002000050037008000eb00bd
:10136000b0c2b30080cf560001003a000b057800f0
:101370001a407800e2c6b300824f500003003200ea
:10138000e2c4b300824f500027003a008a00780080
:101390005141780010c6b300804f51000400320064
:1013a0000000eb0013c4b300834f51005c003a000f
:1013b00051417800e0c6b300804f51000400320074
:1013c0000000eb00e3c4b300834f510054003a0027
:1013d0008104780080c2b300d94f10000b003a009e
:1013e000640545008a057800ba4678000d00fb00c8
:1013f000e90107000000e000faff3a00f0c5b30081
:1014000080cf5600f7ff32000100370089057800d1
:101410004000200091c2b3009bcf100040003a0072
:101420008b04e8003e00370092c6b300824f5000a4
:101430000300320092c4b300824f50003c003a00d7
:101440005a417800e0c6b300804f510004003200da
:101450000000eb00e3c4b300834f510030003a00ba
:101460005a41780060c6b300804f5100040032003a
:101470000000eb0063c4b300834f510028003a0022
:101480008a047800010078003000b300d940780069
:1014900092c6b30082cf50000300320092c4b30062
:1014a00082cf50001e003a00890078005141780038
:1014b000e3c6b300834f510003003200e3c4b3001e
:1014c000834f510016003a005141780093c6b30093
:1014d000834f51000300320093c4b300834f510087
:1014e0000f003a005141780043c7b300834f5100c9
:1014f0000300320043c5b300834f510008003a0097
:101500005141780093c7b300834f5100030032006c
:1015100093c5b300834f510001003a008104e800f5
:101520000c00e00005003200090e780003003700cf
:10153000010078000000a0008a047800090c7800ff
:101540004f06be004f05be004f04be00000006005f
:10155000ee874700889fbe008a9fbe008c9fbe001a
:101560008e1f7800f0b79f00010678008205780092
:1015700000047800080578000a047800b84678006e
:101580000d00fb00920107000000e000f9ff3a00a7
:10159000d0c2b30080cf56000300320000c0e90083
:1015a00080cf560002003a000a05e800010037002b
:1015b000804678000b00e00005003500e18f550003
:1015c0000300320040022000808f550006003400e6
:1015d0006044b8000c00e000700032007fb097005b
:1015e000000e78006d0037000b00e0000e003200a6
:1015f000f08f55001a003a0000c3b3009a4f100054
:1016000017003a001a40900081c7b300814f500084
:101610000300320081c5b300814f500010003a0032
:101620000a85e8000e003700ab00200000c3b300bd
:101630009a4f10000a003a001a40900081c7b30088
:10164000814f5000040032008b00200081c5b300a0
:10165000814f500002003a000a85e8000b0120008b
:101660000a007800000278000400780001c3b3008b
:10167000b0cf1000fbff3200040778006044b800d0
:10168000b4b79f000d003700c18620008140500094
:10169000c1ef9f006159b9000800be004b07070069
:1016a0004fea97000401fb00cf91de00c8b79f000e
:1016b000d9b79f0002044000838448008e0278005e
:1016c0003e00fb0085bf9f00490107000b01780029
:1016d00080007800c08620002c0407008fba970095
:1016e0000000e000e8ff3a003fb29700850f550088
:1016f00005003a006044b8000c00e000270032000a
:10170000ffb29700240037000482520010892000a5
:1017100060c07d000000fb00000252001700330093
:1017200011003a004fe997000200fb00cf80de0075
:101730000000540081805c00800f5400818f5c00a9
:10174000090039006159b90085bf9f00effc07000f
:101750008fba97004fb19700dfb19700820f50000a
:10176000838f58000500320020022000004b8800c3
:101770000084eb008084eb0005003700d0c2b3008a
:1017800080cf560002003a0060041400e0841c0080
:101790000c00e00001003200050e78000800be00d9
:1017a0004f0778004f06be004f05be004f04be0035
:1017b000ef00b10000000600e8874700889fbe00e8
:1017c0008a9fbe008c9fbe008e1f7800e0b79f00ee
:1017d00082047800030478006722b9000006eb0059
:1017e000010037001c0020008101780000c3b30015
:1017f000b14f1000fbff3200000ceb0038147800f2
:10180000880578000005eb002a003700840f55009a
:1018100016003d0072002000110009000205d800ea
:101820000100e00003003a00e4854500800deb0074
:10183000bb1578001b06be00446bdd00cc63de00e8
:10184000870373004463dd00c18c200001805200d7
:10185000618b2000614078000000fb00cf80de003b
:10186000801d430081954b001000370010002000c0
:1018700001002000180c400058944800840f5500c7
:101880000b003a00c18c200001805200618b2000c7
:1018900061407800e74f5000050034001000200040
:1018a000010020009b0d4000db9548000a05e80080
:1018b0001c002000830678008d01780033477800f3
:1018c0008e00fb0062012000c08c2000f3b79f0057
:1018d00084bf9f00ad03070080027800ffb197002e
:1018e0000fba97000500e000c8ff3a00840f5500ca
:1018f0000100340004057800e0c2b300804f5700b7
:1019000001003a008d06e8000a00e00029003a00d4
:101910000d007800050037000081eb008081eb00ae
:10192000180c4100589449001c00200080067800e3
:1019300001c3b300b0cf1000f7ff32001d00370025
:10194000840f55001a003d007200200011000900ac
:101950000205d8000100e00003003a00e4854500dc
:10196000800deb00bb1578001b03be004439dd0081
:10197000cc31de00830171004431dd00c18c2000d8
:1019800001805200618b2000614078000000fb0064
:10199000cf80de00801d4100819549000a05e800e6
:1019a0000081eb008081eb00180c41005894490045
:1019b0001c0020000d0778008e067800bd00fb009b
:1019c00062012000c08c200084bf9f006f030700cd
:1019d000800278000fba97000500e000d8ff3a00b7
:1019e0000c01780073002000110009000305d800e5
:1019f0000100e0001300320001805100c200dd0050
:101a00001b02be008100e900030033000402420013
:101a100085824a00fbff3700848dbe000a05400026
:101a2000cf80de00181c1000189418000500370045
:101a3000670555007000200001002000180c4000d0
:101a400058944800e60f5500040034002b00be00f7
:101a5000e00f5000e08f5800f5ff32001800be0084
:101a6000420add00ce02de00850272004202dd0085
:101a7000048cbe000c00e000380032001e407800ec
:101a800001c7b300814f50000300320001c5b3000d
:101a9000814f500030003a000e067800dc45780097
:101aa000b0c2b30080cf550003003200d1c2b300f2
:101ab00081cf550002003a000c06e8000100370013
:101ac000804578006000b8000001eb00130037008b
:101ad000f20f2e00535f2000820f5000838f5800ba
:101ae0000d003c00a20020000300200084bf9f00e6
:101af000f5b79f00350607000d01fb00cf91de0012
:101b00000203b1000380b10002004000838048005e
:101b1000ffb297000fba9700120020000c07780060
:101b20000e067800bc4678008d01fb000303b1006f
:101b3000e98f5100e6ff3600d3c2b30083cf5500d2
:101b400002003a0060001000e0801800041c400011
:101b500005944800010037000c0178000900e000fe
:101b6000040032000200e00001003a006fb7970065
:101b70008e0c780072002000110009000205d800c8
:101b80004f0778004f06be004f05be004f04be0051
:101b90008f00b100000006000003b1000b0035000b
:101ba0009000b100080034008000b100070035004b
:101bb0009001b100040034007000b1000300350052
:101bc0009001b10001003c0010000500000005007c
:101bd0006900e100040035006d00e10003003400fd
:101be0000002b100010032000000050010000500f5
:101bf000800078001104b100030035009101b100ac
:101c000001003c000050a00000000600104b8000c6
:101c10000000e000010032000000010000962000fa
:101c2000000006000600fa00881f78000004780013
:101c30008800780068805700d2bf9f00e3bf9f00f4
:101c4000d40007005fb99700efb997001800be00f5
:101c5000a7050700008cbe004fb99700cf91de00aa
:101c600008007800700007004f0478000080fa0038
:101c7000000006000400fa00889fbe008a1f78005a
:101c8000b0bf9f00c1bf9f000204be00e00f510023
:101c9000e08f59005e0032006011b8005105070066
:101ca0000000e0005a003200e00f5400e08f5c00ba
:101cb0002a003d0060041400e0841c000005eb00d5
:101cc0000000200001f823000808a30005003200ee
:101cd000c251dd0002942000028141001201be00c9
:101ce000830507008904d1000884d300e00f540065
:101cf000e08f5c00030032000a05e800e50f5500a4
:101d0000f1ff3a000001be000000200001f82300ae
:101d1000f20407000001be006a805700c1ff0700ff
:101d20000000e00032003d00e00f5400e08f5c0056
:101d300037003200e2112b00f3a420006a80570024
:101d4000b8ff07000000e00029003d0061045400d6
:101d5000e0845c00f7ff3a00290037000005eb0043
:101d60000000200001f823000808a300050032004d
:101d7000c251dd0002942000028141001201be0028
:101d80005b0507008984d1000884d300e00f54006c
:101d9000e08f5c00030032000a05e800e50f550003
:101da000f1ff3a000001be006a8057009dff070066
:101db0000000e0000e003d00e00f5400e08f5c00ea
:101dc00013003200e25a2c00d34927006a805700e2
:101dd00094ff07000000e00005003d00610454008e
:101de000e0845c004240a900f6ff3c00040037009c
:101df0000000e00002003a0000012000030037006c
:101e0000e10f500002003a0080002000850007002a
:101e10003fb89700cfb897004f0578004f04be0039
:101e20000080fa00000006000400fa00889fbe004f
:101e30000004780088047800590078004702de002a
:101e400084007800f10fb200e14f420009003a002f
:101e500080007800f107b200200020004a003a001c
:101e6000100020001800e000470032002000200091
:101e7000450037000100e0000a003a000800780041
:101e8000c2bf9f00d3bf9f007e0207008000780082
:101e90000000eb004fb99700dfb997000100e000a8
:101ea00039003c004f88de00028140008301480079
:101eb000e00f2000800f5100e08f5900090034002e
:101ec0000000200001f827001900e00002003d009a
:101ed0000000200001f82f00008cbe001000200040
:101ee00029003700e00f5100e08f59000500340051
:101ef0004711dd00f007280019006000800c710018
:101f00002000370099007800000028000080600061
:101f1000f10fb2000170a000810c78006101510046
:101f2000e0815900f70f4100e08f490004003d00b7
:101f3000800c7800000ceb000000eb001200370072
:101f4000ef0f410003003d00010c7800800ceb0016
:101f5000700141000201ea0009003200f0001100a6
:101f6000990178008119dd00980078008208de0070
:101f7000018c7100990078000209de00820c780063
:101f8000990c70000080eb004f04be000080fa0046
:101f900000000600889fbe000004be0000f8270075
:101fa000590060004700de00f20f2000820f500051
:101fb0000a003a00000ceb00f20720001901610052
:101fc0002000200015003a00100020001100e00061
:101fd0001200320020002000100037000000e00056
:101fe00004003a0001007800260207000000e0002b
:101ff00008003c00f20728001901610001f02300ed
:10200000810c710021f82f00010c40000080eb00d2
:1020100002003700000ceb000000eb004f04be0094
:1020200000000600e50060000300320010022000fe
:10203000004b8800000006007800600002003200bb
:1020400020022000004b880000000600881f780056
:102050000204780008017800d6010700080040005b
:102060004f047800000006000000fa00881f780086
:1020700000047800ea8157003fb997008800780093
:1020800060022100070007000000e00002003500a8
:102090008040eb00017478004f0478000080fa0063
:1020a000000006006200fa00889fbe008a1f7800c8
:1020b000000578008104780002047800830078002d
:1020c00080f92f000f004000020407009a979f003c
:1020d000a9979f000000eb00b09f9f001885fb00b0
:1020e0008a04fb000a05ea004f55de00500220007a
:1020f000808f54000d003200e10f55000b003a00b4
:102100000a017800880078002f9097009f9197002f
:1021100003000100a0979f000000e0008e00320045
:102120003f9897000000e800b09f9f000a04440019
:1021300050022000808f5400040032000900e000ab
:10214000e6ff3a003f989700840037000000eb005c
:10215000909f9f00809f9f00f0979f00e0979f00b7
:10216000d0979f00c0979f0007003700a1932000e1
:102170000100500000004000e19220006100780062
:10218000df98970001007000d09f9f0088047800be
:1021900009047800384578008a00fb00a0932000ed
:1021a0008b0107000000e000f0ff3a00a1c2b3007d
:1021b000814f55000e003a00cf8897000180e9005a
:1021c000c08f9f0010007800c09f9f000000e000bb
:1021d00005003d000000ea00c09f9f005f98970047
:1021e0000020a000d09f9f000904e8000f003700e6
:1021f000c09f9f000000eb0005003700f2ff2700a2
:10220000820f5000020032006a01b90002804000d3
:102210000904780088047800b900fb000103b100cc
:10222000e98f5000f5ff3600c09f9f00e0c2b30069
:10223000984f1000020032000080eb0019003700b8
:10224000a0c2b300d84f100007003a00cf88970013
:102250000180e900c08f9f0010007800a09f9f00c0
:102260000804e800100037000000eb00a09f9f006a
:102270008800780005003700f3ff2700830f500027
:10228000020032006a02b900040041000104780033
:10229000880078003101fb000203b100e90f510012
:1022a000f5ff3600a09f9f00984478008900fb004e
:1022b00060922000460107000000e00002003200aa
:1022c0000804e800010037008044eb00c97f9f004c
:1022d00080c6b30080cf540004003a0098cf1400a9
:1022e0000a003a006640500006003700c0c6b3003e
:1022f00080cf540005003a0098cf140003003a0044
:1023000065404000c07f9f000804e8001801fb0002
:10231000e3fb2f008f81410081f92f008f80400067
:10232000a0f92f000f004000100007000000e0009f
:1023300009003a00e1fb2f008f804000a0f92f0038
:102340000f004000a70207000000e0000200350077
:102350000804e80061ff37000080eb004f057800bb
:102360004f04be000080fa0000000600881f7800bd
:10237000e4c6b300844f5100b600320010003c00a8
:102380006b425200844f51001800320005003c009f
:1023900054c2b300844f5100ee00320084c5b30034
:1023a0000f00370044c6b300844f510014003200c0
:1023b00065424200844f5100e9003a0010003700a6
:1023c00004c7b300844f5100d500320053003500dc
:1023d00065424200844f5100500032006342420087
:1023e000844f5100de003a004c0037001181e900b3
:1023f00082087800f000900012417800d600370083
:1024000020629000c5c6b300854f520007003a0015
:102410009102780064825200840878001402be00a1
:102420004fabde00860378001100370015c7b300fc
:10243000854f520003003200a5c6b300854f5200fd
:1024400006003a0091027800688252008408780001
:102450005403be004402be00050037001182e900ab
:102460008408780014027800cfa2de00612bb90046
:102470000498be000690be00a060900088c6b3001d
:1024800088cf50000d00320028c6b30088cf50001e
:1024900004003a000402fb00cfa2de00612bb90069
:1024a0000800370048c7b30088cf5000030032004f
:1024b0006644440088cf500004003a00cfa2de00fa
:1024c000612bb9000498be000690be003002be0029
:1024d0002003be00f0009000e00f5200e08f5a0091
:1024e000e00f5b00e08f5b0002003d00d4c2b30050
:1024f00008003700001290000418a3000200320008
:10250000b4c2b300030037000408a3004c0032003b
:1025100004c2b30084f178004700370020629000c5
:10252000c5c6b300854f520006003a0091027800fc
:1025300064825200840878001402be006033b80040
:102540001100370015c7b300854f52000300320059
:10255000a5c6b300854f520006003a0091027800ec
:1025600068825200840878005403be004402be0012
:10257000050037001182e900840878001402780011
:102580008002eb006033b8000498be000690be00e5
:10259000a060900088c6b30088cf50000d003200c4
:1025a00028c6b30088cf500004003a000482fb0024
:1025b0008002eb006033b8000800370048c7b30062
:1025c00088cf5000030032006644440088cf50009a
:1025d00004003a008002eb006033b8000498be00ab
:1025e0000690be00801090000138a3001400320055
:1025f0003002be002003be00e00f5200e08f5a0000
:10260000e00f5b00e08f5b000d00320081c7b3007c
:10261000814f51000300320081c5b300814f51004a
:1026200007003a00f000900004c3b30084f1780082
:102630008100e80082f178008100e80071009800d4
:10264000f000900081814100630098008240780092
:102650003e003700a0619000c4c6b3001181e900bc
:1026600084cf5100220032000a003c006442520034
:1026700084cf51002500320004c2e80084cf51000d
:10268000130032006842520084cf51001e003a000d
:102690000a00370044c7b30084cf51001b0032004a
:1026a0006642420084cf5100180032006942520055
:1026b00084cf510014003a000500370082087800ea
:1026c0009200780040589000804878002c00370035
:1026d0008208780092007800600a9000cfa2de00a5
:1026e000612bb9008498be008690be00240037009c
:1026f000820878009200780060099000cf91de0097
:102700008288be001e0037001181e900820878002f
:102710009200780060089000800878001800370068
:102720001181e9008208780012027800cfa2de0051
:10273000612bb9000498be000690be00f000900026
:10274000818141006300980081c7b30076000700d3
:102750000b003700f000900082f17800060037008f
:10276000f0009000818141000204e00001003a0085
:1027700052c2b300824978008100e80071009800dd
:102780000000eb004f047800000006000300370053
:10279000b0cf1000050032000201e900800178008e
:1027a0000200e000faff3a00000005000300780094
:1027b000000006008001780002003700b15978005f
:1027c0000201e9000200e000fcff3a000000060000
:1027d000020037000304e000060032000001780028
:1027e00002007800b041780081cf5100f9ff3a0033
:1027f000010037000001eb00020078000000060035
:10280000000178000700370086cf520002003a002e
:102810000080510000000600344378000604e00008
:10282000f9ff3a0082017800b24278000504e00026
:102830000200320001027800f7ff370000805100eb
:1028400000000600000178000800370081027800cf
:10285000354378000604e00002003a000080510091
:1028600000000600864f5200f9ff3a00820178000e
:10287000324278000404e000f4ff3a000080510086
:102880000000060080007800d101780004002800d4
:1028900004826100f307b200830878001200200070
:1028a0000e003a00900178000300e0001b003200a7
:1028b000830878000008eb0012ff2f0007003700a4
:1028c0008381410090027800cf2ade008588710064
:1028d00090017800038841000201e900910178002d
:1028e000f5072000858f5100f5ff36000500370001
:1028f000cf19dd009002d100058871009108d10048
:102900000201e80091017800f50f2000858f510049
:10291000f7ff3e00f00720008088610091087200f8
:102920000200780000000600fc874700889fbe0078
:102930008a9fbe008c9fbe008e1f78000006780024
:1029400080c5b30080cf50000a00320077404000bd
:1029500080cf50000a0032006940400080cf500014
:102960000b003200508f200080bf9f00ae0020007f
:102970000a003700428e200082bf9f000600370009
:10298000538f200083bf9f008e002000030037007c
:10299000548f200084bf9f000e0120003c02be0027
:1029a0002c03be000605be000404be0040c6b300f2
:1029b00080cf5000030032006540400080cf5000bf
:1029c0000b003a00e00f5200e08f5a00e00f5b006e
:1029d000e08f5b0006003d006000b8006011b800a9
:1029e0000404500085845800060559008785590065
:1029f000e80f57000400320040002000f00f57009d
:102a000038003a000100370030002000e00f540089
:102a1000e08f5c00e00f5d00e08f5d0004003a0095
:102a2000dc0890008d0120000100e000060032006b
:102a30008e00e900888060008fba9700e5c07800ba
:102a4000f1ef9f007d012000800078008100e90007
:102a5000050033008b05d1000a85d3008984d3009b
:102a60000884d300f9ff3700089ebe000a96be0016
:102a7000120037008d06e9008e00e90084806000b6
:102a80000fb99700e2c1780082fd2f000f014100cd
:102a900003f17e00800078008100e900050033002a
:102aa0008783d1000683d3008582d3000482d300bc
:102ab000f9ff3700049ebe000696be003c02be0031
:102ac0002c03be00e00f5200e08f5a00e00f5b00c5
:102ad000e08f5b008b0034000d00e000e5ff3c0060
:102ae000880037002c60900081c6b300814f5000f1
:102af0000b00320006003c000004e0000800320039
:102b0000e6c05000814f50004e003a0004003700ec
:102b1000c1c6b300814f50004a003a00210037007f
:102b20000800e00004003a005c0890008d012000dd
:102b30000000e00006003200110009000e84d800f9
:102b40000fb99700e2c07800f1ef9f007d012000ef
:102b5000110009000e84d8000a0037001100090096
:102b60000e04d8008d06e9000e81b900020454005d
:102b70008fb8970061417c0081fd2f008f8040005d
:102b800082f07e00000478000800e00002003200bd
:102b90000d00e000f1ff3c00cfc4de00614db90044
:102ba00025003700e00f5400e08f5c0004003a007d
:102bb0005c0890008d0120000000e000070032005a
:102bc0006171b9000800be00fd0107008fb99700d0
:102bd000e3417800f3ef9f007d0120006171b900af
:102be0000800be00c9f707000b0037006171b9008b
:102bf0000800be0080f707008d06e90000f1b9006b
:102c0000020454000fba9700e4427c0084fd2f00b8
:102c10000f02420005f27e000004be00e00f5000eb
:102c2000e08f5800020032000d00e000efff3c0092
:102c30004fcdde008a057800089ebe000a96be00d1
:102c400030003700e00f5400e08f5c00e00f5d00c3
:102c5000e08f5d0004003a005c0890008d012000c8
:102c60000000e000090032006172b900612bb90078
:102c70000800be000a01be007a0207000fba9700e2
:102c800064427800f4ef9f007d0120006172b9007a
:102c9000612bb9000800be000a01be006a020700ed
:102ca0000d0037006172b900612bb9000800be0049
:102cb0000a01be006f0207008d06e90000f2b900ac
:102cc000040454008fba970065427c0085fd2f00f4
:102cd0008f82420084f27e00009ebe000296be00fb
:102ce0003c04be002c05be00e00f5400e08f5c00e9
:102cf000e00f5d00e08f5d00020034000d00e00099
:102d0000e8ff3c00e80f570010003a000c1090005c
:102d10000038a3000d003200f78f560006003e0079
:102d200085fd2f008f824200e5c07e0000c3b30006
:102d300080cf5000050032008d06e90002c3b300c9
:102d400081fd2f008f80400082f07e007881160088
:102d5000120e98006c00900083fd2f008f814100bf
:102d60008d80410093fe07001c089000dc08900055
:102d7000810f500006003d0000805000000e9800ba
:102d80000c1090000040a100001698000f003700c2
:102d90000100e0000d003d008c109000f480600008
:102da000f08f500009003a007c099000fc00900070
:102db000810051000c09900082805000008050007a
:102dc0004240a90001003400000e98004f0778002f
:102dd0004f06be004f05be004f04be00cf01b1003c
:102de000000006000400fa00889fbe008a9fbe0013
:102df0008c1f78000004780001067800f80d900020
:102e00007800900080855500080890008085550066
:102e1000180890008085550028089000808555008e
:102e2000380890008085550048089000808555003e
:102e30000002220090bf9f0000032300a0bf9f005c
:102e4000081090000028a30015003a000b00e000d5
:102e5000130034000b0578008a047800e20f550057
:102e60000100360029002000c80190000901780007
:102e7000ee805700580090000300010050049800b5
:102e80000000e0008c00320068089000090040005b
:102e9000600c9800090555004240a900eeff3c0077
:102ea000780190000200e0000c003400c80190009e
:102eb0008c00780058009000030001005004980036
:102ec0008080eb000000e0007c003200e808900009
:102ed0007800900000804000600c9800880c900002
:102ee0000900e0001100340009057800e28f540069
:102ef000010036002a002000c80190000a01780075
:102f0000ec80570058009000030001005004980026
:102f10000000e00068003200680890000a004000ed
:102f2000600c98008a845400edff37001809900067
:102f30000200e0000c003400c8019000e80090009e
:102f40005800900003000100500498008080eb00be
:102f50000000e00059003200e808900018089000d6
:102f600000804000600c9800a80c90000900e00070
:102f70001100340009057800e28f5400010036008a
:102f80002a002000c80190000a017800ec80570058
:102f90005800900003000100500498000000e00079
:102fa00045003200680890000a004000600c98005c
:102fb0008a845400edff3700380990000200e000d9
:102fc0000e003400e8009000180890008080400057
:102fd000c8019000580090000300010050049800c0
:102fe0008080eb000000e00034003200e808900030
:102ff0003808900000804000600c9800c80c9000d9
:103000000900e0001100340009057800e28f540047
:10301000010036002a002000c80190000a01780053
:10302000ec80570058009000030001005004980005
:103030000000e00020003200680890000a00400014
:10304000600c98008a845400edff3700081090004f
:103050008000eb000028a300180032000b00e00005
:10306000160034008b04780009057800e28f5400c4
:10307000010036002a002000c80190000a017800f3
:10308000ee805700580090000300010050049800a3
:103090000000e00008003200680890000a004000cc
:1030a000600c98008a8454004240a900eeff3c0066
:1030b0008000eb00010037008080eb000100780009
:1030c0004f0678004f05be004f04be000080fa0096
:1030d000000006000108780000000600889fbe007e
:1030e0008a9fbe008c1f78006900070070003300c3
:1030f00003866c006450e1002e0032006420e10081
:10310000330032006150e1002f0032006120e10005
:103110003100320085855500eb07b0000900200022
:1031200008042000050037000804440089844c008e
:103130000a0031000603430087834b00000153005f
:1031400081815b00f8ff33000203be000800a0008d
:103150000804440089844c00f6ff3900c639dd00bc
:103160008301730001003200130020008904d100a4
:103170000884d3000998a300050032000800a700c6
:103180000300a0008904d1000884d3008b05e80067
:103190008904d1000884d3000001eb000281d20031
:1031a0001500070001f0a1000cf0a70001f0a0003d
:1031b000480037006420e1004a0032000801be00e8
:1031c0000200be00f7ff37006120e1004500320039
:1031d0006000b800f3ff37000000200001f827006e
:1031e000f0ff370014002000800137004f89de0017
:1031f000820178009801370081002000618055002d
:103200000b003d000b00200061fe2f000100e100db
:103210001d00340082817100610164008904d100c5
:103220000884d3000000e800faff3a007100200093
:1032300061006400030070000200600009003200b9
:1032400061044400e0844c000988a50005003200b8
:103250008b05e8006808e10002003a008904d1000b
:103260000884d300f20f20000258e10005003d0061
:10327000c75ddd00f907b20089807500080078009d
:10328000000006000bf827008b0078000000050006
:103290000004be0008f607000003be000405be00df
:1032a0000200be0004f60700844f7500000006000f
:1032b0000200be006450e100050036006420e10019
:1032c000020036000968a30001003a000800be00b1
:1032d0000160a0004f0678004f05be004f04be00fd
:1032e00000000600f0ff2f00f1ff2700f9ff370074
:1032f000889fbe008a9fbe008c1f7800e4ff0700f5
:10330000ebff330003866c006450e10024003200c0
:103310006420e100270032006150e1002200320009
:103320006120e100210032008b854200eb07b100f3
:103330000134b800003ab8000804420089844a0009
:10334000013ab8000030b8008880400009014a0006
:103350000400330000004000818048000201490061
:103360008b05e900c909dd0083017000010032000e
:1033700013002000c814de004814dd004709de00f9
:103380001200b200c808de00088470009aff07002f
:1033900001f0a1000cf0a70001f0a000cdff370064
:1033a0006120e100cfff32000801be000200be0034
:1033b000f7ff37006150e100fcff3a00c9ff37001a
:1033c000d2f507000400be0000000600020ab900a2
:1033d000001bb9000200b8008100420081004300d8
:1033e00000000600889fbe008a9fbe003004420095
:1033f000b0844a0030054b0090854b006000b1005e
:103400000898be000a90be000440e10005c8e10033
:1034100006d0e10007d8e10002003100680040005a
:103420001008e8004f05be004f04be000000060073
:10343000889fbe008a9fbe003004be002005be00eb
:103440000418540005985c0006185d0007985d009c
:10345000110020000440e10005c8e10006d0e100b1
:1034600007d8e100010039008000eb00108810004f
:103470004f05be004f04be00000006001200fa0017
:10348000889fbe008a9fbe008c9fbe00e0b79f0051
:10349000f1b79f0082bf9f0093bf9f000605be004b
:1034a0000404be000000eb00d0b79f00c0b79f002f
:1034b000b0b79f00a0b79f0090b79f000006eb0039
:1034c0005fb19700cfb09700820141003fb09700f5
:1034d0000200e00004003d00370007007e80570036
:1034e000c0ff070003003700330007007e8057004d
:1034f000cfff0700dfb697000d00e0000c0035009d
:103500006fb29700ffb297000fbb97009fbb970069
:1035100010002000010020006011b80000027200bd
:103520008182720002037300838373001b00070013
:103530000c06e80001042000810f5600e0ff3a006d
:103540000d00e00004003d000802be000a03be00ba
:103550007e805700a3ff07005fa897000000e000ef
:1035600005003a001fb29700afb297003fb3970033
:10357000cfb39700090007006fb09700ffb0970026
:103580000fb997009fb997004f06be004f05be00c8
:103590004f04be000080fa00000006000100070092
:1035a00000000600a4b79f00b5b79f00c6b79f00f4
:1035b000d7b79f00000006004f09de00828171002e
:1035c000b3b79f004f01de00818040008280700011
:1035d000a1b79f008fb097004f09de0000004000a8
:1035e0000200700090b79f007fa897004f01de0097
:1035f000818040008280700081b79f000d0007002d
:103600004f3ade000000400004007000f0af9f0061
:10361000080007000402420085824a0006034b00ae
:1036200087834b00dfff07000802be000a03be00cd
:10363000000006002fb29700bfb297004fb397006b
:10364000dfb3970000000600881f780018002000f4
:10365000881f780089ff07008f87e9004f047800f2
:1036600000000600801feb0084ff07008f87e90041
:1036700000000600889fbe008a9fbe00e00f500039
:10368000e08f5800e00f5900e08f59000c003d001a
:103690006044b8006055b8000000540081805c00b0
:1036a00002015d0083815d00180020001500070005
:1036b00008003d00180007000004eb00050037007b
:1036c0000004eb000f00070002003d00120007009d
:1036d00018002000dcff07000800e00006003200b0
:1036e0006022b8006033b8000000520081805a00a8
:1036f00002015b0083815b004f05be004f04be00ea
:1037000000000600e00f5200e08f5a00e00f5b005f
:10371000e08f5b00000006006044b8006055b80010
:103720000402540085825c0006035d0087835d000f
:1037300000000600889fbe008a9fbe008c1f780094
:10374000e00f5000e08f5800e00f5900e08f590063
:103750000d003d006044b8006055b8000000540002
:1037600081805c0002015d0083815d001c002000ff
:103770000820e10009a8e1000ab0e1000bb8e1006f
:103780000d003d00080037000006eb00e00f52007e
:10379000e08f5a00e00f5b00e08f5b0006003d0009
:1037a0006044b8006055b8000402540085825c0093
:1037b00006035d0087835d00aaff07000c00e000a0
:1037c000060032006022b8006033b80000005200ea
:1037d00081805a0002015b0083815b004f06780004
:1037e0004f05be004f04be0000000600889fbe00cb
:1037f0008a9fbe00841f7800a5fe07004f00780056
:1038000011003300f0ff2f00838f6c0006003b0097
:10381000040565000a00a7000800370009f0a600ab
:103820001000200008003700820f5400838f5c00d6
:10383000030039001000200001003e0000002000bd
:1038400009f0a7000000ea004f05be004f04be00cb
:103850000000e00000000600881f780003047800e4
:103860000300e00007003d0060001000e080180049
:1038700060011900e081190002003b0001f02d00f9
:10388000030037000400070008f0a70001f0a000c3
:103890004f04780000000600889fbe008a9fbe008b
:1038a0000082700004027100048271002600320060
:1038b0000004be000200be006011b8006b092000c9
:1038c000950220000182cf000a0039000541b100b5
:1038d0000082cf00070039000541b1000982cf0006
:1038e000040039000541b1000882cf000100390011
:1038f0000541b10005425200120032000a003b00af
:1039000082817100610164008100d1000080d300d8
:103910008984d3000884d3008b05e8000442e800c2
:10392000f7ff3a00070037000804440089844c0080
:1039300000004800818048008b05e9000442e9004e
:10394000f9ff3a002cfe07004f05be004f04be00f1
:04395000000006006d
:020000040000fa
:0c3954002c0000002564000000000000b2
:020000040000fa
:10396000500800001c0000000000000000080000db
:103970005000000002000000000080003f303000d6
:1039800030303000300053007065650064203d0029
:103990002030300030303000207270006d0d0a0091
:1039a00000000000001002000420040002010800d2
:1039b0001008010020000000000010000204200098
:1039c00004020100081008000120000000000000af
:1039d0000120100008010800040204002010020069
:1039e0000000000064090000020000000200000066
:1039f000040000005809000004000000000000005e
:103a00005c090000040000000200000000005c00ef
:103a1000090000000609000020000000020000006c
:103a20000a000000006400000000e800030000003d
:103a30001027000000a0860001004000420f000097
:103a4000809698000000e100f50500006c08000079
:103a50004a000000020000003031320033343500eb
:103a60003637380039616200636465006667680054
:103a7000696a6b006c6d6e006f7071007273740018
:103a80007576770078797a00000000002115110022
:103a90000e0d0c000b0b0a000a09090009090900a8
:103aa00008080800080808000807070007070700bb
:103ab000070707000707070007070000b608000010
:103ac0002e000000020000000001020003040500b7
:103ad00006070800090a0b000c0d0e000f0a0b0068
:103ae0000c0d0e000f303100323334003536370004
:103af00038396100626364006566410042434400f6
:103b000045460000000000006009000004000000bd
:103b10000000000040090000180000000200000042
:103b20000000200041000000c8420000401c460088
:103b300020bcbe004cca1b000e5aae00c59d7400ce
:103b4000260900001a00000002000000686a6c00ec
:103b5000747a4c000000010000020000040008001c
:103b600000100000000020002b2d2300300000007a
:103b7000e4080000220000000200000030313200a2
:103b8000333435003637380039414200434445006c
:103b900046003000313233003435360037383900d2
:103ba0006162630064656600000000006609000051
:0c3bb00002000000000000000000000007
:020000040000fa
:0200000401f009
:04000000f6bf000047
:020000040000fa
:0200000401f009
:04000400d77f0000a2
:020000040000fa
:0200000401f009
:04000800efff000006
:020000040000fa
:0200000401f009
:04001400ffff0000ea
:020000040000fa
:0200000401f009
:04001800ffff0000e6
:00000001FF
