:020000040000fa
:080000000001040000000000f3
:020000040000fa
:100008002804000028040000280400002804000038
:100018002804000028040000280400002804000028
:100028002804000028040000280400002804000018
:100038002804000028040000280400002804000008
:10004800280400002804000028040000c80100005b
:100058002804000028040000280400009a01000079
:1000680028040000280400002804000028040000d8
:1000780028040000280400002804000028040000c8
:1000880028040000280400002804000028040000b8
:1000980028040000280400002804000028040000a8
:1000a8002804000028040000280400002804000098
:1000b8002804000028040000280400002804000088
:1000c8002804000028040000280400002804000078
:1000d8002804000028040000280400002804000068
:1000e8002804000028040000280400002804000058
:0800f8002804000028040000a8
:020000040000fa
:100108002804000028040000280400002804000037
:100118002804000028040000280400002804000027
:100128002804000028040000280400002804000017
:100138002804000028040000280400002804000007
:10014800280400002804000028040000c80100005a
:100158002804000028040000280400009a01000078
:1001680028040000280400002804000028040000d7
:1001780028040000280400002804000028040000c7
:1001880028040000280400002804000028040000b7
:1001980028040000280400002804000028040000a7
:1001a8002804000028040000280400002804000097
:1001b8002804000028040000280400002804000087
:1001c8002804000028040000280400002804000077
:1001d8002804000028040000280400002804000067
:1001e8002804000028040000280400002804000057
:0801f8002804000028040000a7
:020000040000fa
:10020000cf8220000e9f20000e0188000000000019
:10021000000020000000e000020032000001200089
:10022000200288000c000700604d20000100200023
:1002300011000700000020000000e0000200320072
:100240000000020000000000f401020000000000b5
:100250000040da000000fe004440a9000000200039
:100260000000e0000300320000002000a001880030
:100270004440a8000000060091018800800078003a
:100280000000eb0015003700e280400032a0b4000f
:100290009101ba00e280400032a0b4009102ba009d
:1002a000e280400032a0b4000002eb00472bde00e9
:1002b000f507b200602ce10004003a000059eb00a1
:1002c0008301e900fdff3e00040037006128e100e2
:1002d000010032000082eb00040007001101ba00a7
:1002e0000200e000e8ff3a00000006003159ba00c1
:1002f0008301e9000c0032002159ba008301e900b2
:10030000080032000400e00003003a00e2804000f0
:1003100032a0b400f5ff370011d9ba008301e9001b
:10032000faff3a008100e800e180400032a0b4000a
:1003300000000600809fbe003400f800000020008e
:10034000a00188000000fa0085e0a90041168000a5
:100350008003200000806000104088001040800072
:100360004300de0010408800104080008000400004
:10037000c08120000080400010007800a00e88009e
:100380000080fa003400f9004f00be000040060073
:10039000801f78003400f80000002000a0018800d1
:1003a0000000fa008560a9000014800090408800d9
:1003b00000408000610060000000e00006003a009c
:1003c00000148000b00e8800b00e8000c00e8800bf
:1003d000b00e8000d00e88000080fa003400f900d2
:1003e0004f007800004006000000fa00dc22ef0019
:1003f00000fc2f00c0168800000e200000068800b8
:10040000000e20002006880085e0a9008de0a800ed
:100410001628ef001a28ef005f0007004a000700c7
:100420003a00070041168000800320000080600031
:1004300010408800104080004300de00104088001b
:100440001040800080004000c081200000804000fb
:1004500010007800a00e880070772000400e880001
:100460000008a80000032800900888002200370038
:100470007116800000002400008060000000e00091
:100480001100320010408000e10f50001a003a00c5
:10049000f00f20001040880008c8bf000040e800ae
:1004a00008e8b70008c8bf00e54f500012003a0046
:1004b00050088000304088000a21ef000868ef00f3
:1004c0003d0007000c00370000702000400e88003f
:1004d000d421ef000008a90002003700a00020008e
:1004e000c300070071168000000024000080600037
:1004f0000000e000f9ff3200004080006100600071
:100500000000e000daff3a00c6ff37000000fa0002
:1005100080ff2f004015880040062000001588004d
:10052000a222ef00200020003015880000082000e3
:10053000201588008560a9008d60a800a1e2a800b0
:100540000080fa00000006000000fa0000272000ea
:10055000200e880000702000400e8800d421ef009b
:1005600040062000b00e880040062000c00e880023
:1005700040062000d00e8800200e8000300e88003b
:1005800000f02000500e880000002800000e8800b7
:100590000080fa00000006000000fa0000032000be
:1005a000900888000a21ef000000280070088800e9
:1005b0000080fa00000006000000fa0031408000d0
:1005c000809d2500808f50001b003e003040800041
:1005d0000000e00008003200304080008000eb00a6
:1005e0000001be0080322c00310220009a0007007a
:1005f0000000780020408800a1408000204080005a
:1006000000804000a0408800a04080000080d10011
:10061000a040880009c8bf000040e80009e8b70012
:1006200009c8bf00e14f500004003a000968ef001c
:100630000400070001003700000000000080fa00fd
:10064000000006000000fa00889fbe009040800075
:100650006300b90000007800904088000028a900dd
:10066000a140800090408000808f50000500340041
:10067000a14080009040800000805000b040880081
:100680000500370091408000a040800000805000ad
:10069000b04088000028a800d1408000b040800011
:1006a00000804000d0408800d1408000803222008d
:1006b000808f5000010034001a28ef005040800065
:1006c00061408000730007000001be00b040800060
:1006d000cf80de00009ab90004027800028bb900d6
:1006e00086027800050242000014b80009024200a8
:1006f000840478007040800081408000650007001d
:100700000001be00d0408000cf80de00009ab9001a
:1007100004027800028bb9008602780005024200cc
:100720000010b80001024200840078000800400078
:10073000898048004409dd004c00de0000007100a3
:10074000cc88de0000007800c04088009140800026
:100750003000200000017800110009008200d8005c
:100760009040880000408000620060000000e000cf
:100770000500320091408000c040800000804000b1
:10078000c04088000400370091408000c0408000d5
:1007900000805000c0408800c1408000300620002a
:1007a000808f500002003c0040062000c0408800be
:1007b000c1408000204e2000808f50000300340094
:1007c000204e2000c04088001a28ef00c040800062
:1007d000b00e8800b00e8000c00e8800b00e800001
:1007e000d00e88004f04be000080fa000000060012
:1007f0000400fa0010079800080037000000eb0022
:10080000000f7800010037001e0fe800703e200046
:100810009e007800808f5000fbff36001e00900085
:1008200000f0a7000000ea000000ea004f00de0030
:10083000004078009e0090008100e90011079800b8
:100840000004e000edff3a000080fa00000006001e
:100850000040da000000fe00839f68000100e00015
:1008600002003d0060001000e08018000300e0007e
:1008700002003d0060011100e08119003b0007000b
:100880004f00e00002003b0060001000e080180014
:10089000000006000001be001f0007000470a70052
:1008a00003f0a1006509b100160032000d0035000b
:1008b0006828e10006003500f0ff2f00f1ff270057
:1008c0000300e00013003b000100280000000500c9
:1008d00000004000818048008502e900fcff3a00ea
:1008e00008003700f88f420002003c008000eb0057
:1008f000000005008100d1000080d3008502e800df
:10090000fcff3a000300e00002003b006000100022
:10091000e080180000000600c70ade00f107b20000
:10092000f50fb20008003200e1cf420002003200b1
:100930000170a00024000500810f7000010032004a
:100940000408050044000500810f700002003a0011
:10095000140005008502e9000000400081c0480045
:10096000fcff3b000170a000240005006022b800dd
:10097000060220000000d0008180d2000482d20054
:100980008582d2000000a0000202520083825a0039
:10099000030031000202420083824a000000a100ed
:0c09a0000603e900f3ff3a000000060027
:020000040000fa
:1009ac00000800001c000000000000001c080000f3
:1009bc0010000000020000000000020010200400e3
:1009cc0002040800010810002001000000000000d3
:0409dc000000000017
:00000001FF
